{
  "contractName": "GeniusTokens",
  "abi": [
    {
      "inputs": [],
      "stateMutability": "nonpayable",
      "type": "constructor"
    },
    {
      "anonymous": false,
      "inputs": [
        {
          "indexed": true,
          "internalType": "address",
          "name": "owner",
          "type": "address"
        },
        {
          "indexed": true,
          "internalType": "address",
          "name": "spender",
          "type": "address"
        },
        {
          "indexed": false,
          "internalType": "uint256",
          "name": "value",
          "type": "uint256"
        }
      ],
      "name": "Approval",
      "type": "event"
    },
    {
      "anonymous": false,
      "inputs": [
        {
          "indexed": true,
          "internalType": "address",
          "name": "previousOwner",
          "type": "address"
        },
        {
          "indexed": true,
          "internalType": "address",
          "name": "newOwner",
          "type": "address"
        }
      ],
      "name": "OwnershipTransferred",
      "type": "event"
    },
    {
      "anonymous": false,
      "inputs": [
        {
          "indexed": true,
          "internalType": "address",
          "name": "from",
          "type": "address"
        },
        {
          "indexed": true,
          "internalType": "address",
          "name": "to",
          "type": "address"
        },
        {
          "indexed": false,
          "internalType": "uint256",
          "name": "value",
          "type": "uint256"
        }
      ],
      "name": "Transfer",
      "type": "event"
    },
    {
      "inputs": [],
      "name": "INIT_SUPPLY",
      "outputs": [
        {
          "internalType": "uint256",
          "name": "",
          "type": "uint256"
        }
      ],
      "stateMutability": "view",
      "type": "function"
    },
    {
      "inputs": [],
      "name": "MAX_SUPPLY",
      "outputs": [
        {
          "internalType": "uint256",
          "name": "",
          "type": "uint256"
        }
      ],
      "stateMutability": "view",
      "type": "function"
    },
    {
      "inputs": [
        {
          "internalType": "address",
          "name": "owner",
          "type": "address"
        },
        {
          "internalType": "address",
          "name": "spender",
          "type": "address"
        }
      ],
      "name": "allowance",
      "outputs": [
        {
          "internalType": "uint256",
          "name": "",
          "type": "uint256"
        }
      ],
      "stateMutability": "view",
      "type": "function"
    },
    {
      "inputs": [
        {
          "internalType": "address",
          "name": "spender",
          "type": "address"
        },
        {
          "internalType": "uint256",
          "name": "amount",
          "type": "uint256"
        }
      ],
      "name": "approve",
      "outputs": [
        {
          "internalType": "bool",
          "name": "",
          "type": "bool"
        }
      ],
      "stateMutability": "nonpayable",
      "type": "function"
    },
    {
      "inputs": [
        {
          "internalType": "address",
          "name": "account",
          "type": "address"
        }
      ],
      "name": "balanceOf",
      "outputs": [
        {
          "internalType": "uint256",
          "name": "",
          "type": "uint256"
        }
      ],
      "stateMutability": "view",
      "type": "function"
    },
    {
      "inputs": [],
      "name": "decimals",
      "outputs": [
        {
          "internalType": "uint8",
          "name": "",
          "type": "uint8"
        }
      ],
      "stateMutability": "view",
      "type": "function"
    },
    {
      "inputs": [
        {
          "internalType": "address",
          "name": "spender",
          "type": "address"
        },
        {
          "internalType": "uint256",
          "name": "subtractedValue",
          "type": "uint256"
        }
      ],
      "name": "decreaseAllowance",
      "outputs": [
        {
          "internalType": "bool",
          "name": "",
          "type": "bool"
        }
      ],
      "stateMutability": "nonpayable",
      "type": "function"
    },
    {
      "inputs": [
        {
          "internalType": "address",
          "name": "spender",
          "type": "address"
        },
        {
          "internalType": "uint256",
          "name": "addedValue",
          "type": "uint256"
        }
      ],
      "name": "increaseAllowance",
      "outputs": [
        {
          "internalType": "bool",
          "name": "",
          "type": "bool"
        }
      ],
      "stateMutability": "nonpayable",
      "type": "function"
    },
    {
      "inputs": [
        {
          "internalType": "uint256",
          "name": "",
          "type": "uint256"
        }
      ],
      "name": "limits",
      "outputs": [
        {
          "internalType": "uint256",
          "name": "",
          "type": "uint256"
        }
      ],
      "stateMutability": "view",
      "type": "function"
    },
    {
      "inputs": [],
      "name": "name",
      "outputs": [
        {
          "internalType": "string",
          "name": "",
          "type": "string"
        }
      ],
      "stateMutability": "view",
      "type": "function"
    },
    {
      "inputs": [],
      "name": "owner",
      "outputs": [
        {
          "internalType": "address",
          "name": "",
          "type": "address"
        }
      ],
      "stateMutability": "view",
      "type": "function"
    },
    {
      "inputs": [
        {
          "internalType": "uint256",
          "name": "",
          "type": "uint256"
        }
      ],
      "name": "rates",
      "outputs": [
        {
          "internalType": "uint256",
          "name": "",
          "type": "uint256"
        }
      ],
      "stateMutability": "view",
      "type": "function"
    },
    {
      "inputs": [],
      "name": "renounceOwnership",
      "outputs": [],
      "stateMutability": "nonpayable",
      "type": "function"
    },
    {
      "inputs": [],
      "name": "soldTokens",
      "outputs": [
        {
          "internalType": "uint256",
          "name": "",
          "type": "uint256"
        }
      ],
      "stateMutability": "view",
      "type": "function"
    },
    {
      "inputs": [],
      "name": "symbol",
      "outputs": [
        {
          "internalType": "string",
          "name": "",
          "type": "string"
        }
      ],
      "stateMutability": "view",
      "type": "function"
    },
    {
      "inputs": [],
      "name": "totalSupply",
      "outputs": [
        {
          "internalType": "uint256",
          "name": "",
          "type": "uint256"
        }
      ],
      "stateMutability": "view",
      "type": "function"
    },
    {
      "inputs": [
        {
          "internalType": "address",
          "name": "recipient",
          "type": "address"
        },
        {
          "internalType": "uint256",
          "name": "amount",
          "type": "uint256"
        }
      ],
      "name": "transfer",
      "outputs": [
        {
          "internalType": "bool",
          "name": "",
          "type": "bool"
        }
      ],
      "stateMutability": "nonpayable",
      "type": "function"
    },
    {
      "inputs": [
        {
          "internalType": "address",
          "name": "sender",
          "type": "address"
        },
        {
          "internalType": "address",
          "name": "recipient",
          "type": "address"
        },
        {
          "internalType": "uint256",
          "name": "amount",
          "type": "uint256"
        }
      ],
      "name": "transferFrom",
      "outputs": [
        {
          "internalType": "bool",
          "name": "",
          "type": "bool"
        }
      ],
      "stateMutability": "nonpayable",
      "type": "function"
    },
    {
      "inputs": [
        {
          "internalType": "address",
          "name": "newOwner",
          "type": "address"
        }
      ],
      "name": "transferOwnership",
      "outputs": [],
      "stateMutability": "nonpayable",
      "type": "function"
    },
    {
      "stateMutability": "payable",
      "type": "receive"
    },
    {
      "inputs": [
        {
          "internalType": "address",
          "name": "account",
          "type": "address"
        }
      ],
      "name": "isMinter",
      "outputs": [
        {
          "internalType": "bool",
          "name": "",
          "type": "bool"
        }
      ],
      "stateMutability": "view",
      "type": "function"
    },
    {
      "inputs": [
        {
          "internalType": "address",
          "name": "account",
          "type": "address"
        }
      ],
      "name": "addMinter",
      "outputs": [],
      "stateMutability": "nonpayable",
      "type": "function"
    },
    {
      "inputs": [
        {
          "internalType": "address",
          "name": "account",
          "type": "address"
        }
      ],
      "name": "removeMinter",
      "outputs": [],
      "stateMutability": "nonpayable",
      "type": "function"
    },
    {
      "inputs": [
        {
          "internalType": "address",
          "name": "account",
          "type": "address"
        }
      ],
      "name": "isBurner",
      "outputs": [
        {
          "internalType": "bool",
          "name": "",
          "type": "bool"
        }
      ],
      "stateMutability": "view",
      "type": "function"
    },
    {
      "inputs": [
        {
          "internalType": "address",
          "name": "account",
          "type": "address"
        }
      ],
      "name": "addBurner",
      "outputs": [],
      "stateMutability": "nonpayable",
      "type": "function"
    },
    {
      "inputs": [
        {
          "internalType": "address",
          "name": "account",
          "type": "address"
        }
      ],
      "name": "removeBurner",
      "outputs": [],
      "stateMutability": "nonpayable",
      "type": "function"
    },
    {
      "inputs": [
        {
          "internalType": "uint256",
          "name": "amount",
          "type": "uint256"
        }
      ],
      "name": "mint",
      "outputs": [],
      "stateMutability": "nonpayable",
      "type": "function"
    },
    {
      "inputs": [
        {
          "internalType": "uint256",
          "name": "amount",
          "type": "uint256"
        }
      ],
      "name": "burn",
      "outputs": [],
      "stateMutability": "nonpayable",
      "type": "function"
    },
    {
      "inputs": [],
      "name": "gnusBalance",
      "outputs": [
        {
          "internalType": "uint256",
          "name": "",
          "type": "uint256"
        }
      ],
      "stateMutability": "view",
      "type": "function"
    },
    {
      "inputs": [],
      "name": "ethBalance",
      "outputs": [
        {
          "internalType": "uint256",
          "name": "",
          "type": "uint256"
        }
      ],
      "stateMutability": "view",
      "type": "function"
    },
    {
      "inputs": [],
      "name": "defineStep",
      "outputs": [
        {
          "internalType": "uint256",
          "name": "",
          "type": "uint256"
        }
      ],
      "stateMutability": "view",
      "type": "function"
    },
    {
      "inputs": [
        {
          "internalType": "uint256[][]",
          "name": "convTable",
          "type": "uint256[][]"
        }
      ],
      "name": "dynamicConvTable",
      "outputs": [],
      "stateMutability": "nonpayable",
      "type": "function"
    },
    {
      "inputs": [
        {
          "internalType": "address",
          "name": "_address",
          "type": "address"
        },
        {
          "internalType": "uint256",
          "name": "_amount",
          "type": "uint256"
        }
      ],
      "name": "withdrawETH",
      "outputs": [],
      "stateMutability": "nonpayable",
      "type": "function"
    },
    {
      "inputs": [
        {
          "internalType": "address",
          "name": "to",
          "type": "address"
        },
        {
          "internalType": "uint256",
          "name": "amount",
          "type": "uint256"
        }
      ],
      "name": "withdrawGNUS",
      "outputs": [],
      "stateMutability": "nonpayable",
      "type": "function"
    }
  ],
  "bytecode": "0x60006008556101006040526902a5a058fc295ed00000608081815260a082905260c082905260e0919091526200003a9060099060046200025d565b50604080516080810182526103e8815261032060208201526102809181019190915261020060608201526200007490600a906004620002b8565b503480156200008257600080fd5b506040518060400160405280600d81526020016c47656e69757320546f6b656e7360981b81525060405180604001604052806004815260200163474e555360e01b8152506000620000d86200018060201b60201c565b600080546001600160a01b0319166001600160a01b0383169081178255604051929350917f8be0079c531659141344cd1fd0a4f28419497f9722a3daafe3b4186f6b6457e0908290a350815162000137906004906020850190620002fc565b5080516200014d906005906020840190620002fc565b506200017a9150339050620001656012600a62000438565b6200017490624c4b406200052d565b62000184565b620005a2565b3390565b6001600160a01b038216620001b65760405162461bcd60e51b8152600401620001ad9062000390565b60405180910390fd5b620001c46000838362000258565b8060036000828254620001d89190620003d0565b90915550506001600160a01b0382166000908152600160205260408120805483929062000207908490620003d0565b90915550506040516001600160a01b038316906000907fddf252ad1be2c89b69c2b068fc378daa952ba7f163c4a11628f55a4df523b3ef906200024c908590620003c7565b60405180910390a35050565b505050565b828054828255906000526020600020908101928215620002a6579160200282015b82811115620002a657825182906001600160501b03169055916020019190600101906200027e565b50620002b492915062000379565b5090565b828054828255906000526020600020908101928215620002a6579160200282015b82811115620002a6578251829061ffff16905591602001919060010190620002d9565b8280546200030a906200054f565b90600052602060002090601f0160209004810192826200032e5760008555620002a6565b82601f106200034957805160ff1916838001178555620002a6565b82800160010185558215620002a6579182015b82811115620002a65782518255916020019190600101906200035c565b5b80821115620002b457600081556001016200037a565b6020808252601f908201527f45524332303a206d696e7420746f20746865207a65726f206164647265737300604082015260600190565b90815260200190565b60008219821115620003e657620003e66200058c565b500190565b80825b6001808611620003ff57506200042f565b8187048211156200041457620004146200058c565b808616156200042257918102915b9490941c938002620003ee565b94509492505050565b600062000449600019848462000450565b9392505050565b600082620004615750600162000449565b81620004705750600062000449565b81600181146200048957600281146200049457620004c8565b600191505062000449565b60ff841115620004a857620004a86200058c565b6001841b915084821115620004c157620004c16200058c565b5062000449565b5060208310610133831016604e8410600b841016171562000500575081810a83811115620004fa57620004fa6200058c565b62000449565b6200050f8484846001620003eb565b8086048211156200052457620005246200058c565b02949350505050565b60008160001904831182151516156200054a576200054a6200058c565b500290565b6002810460018216806200056457607f821691505b602082108114156200058657634e487b7160e01b600052602260045260246000fd5b50919050565b634e487b7160e01b600052601160045260246000fd5b6129ee80620005b26000396000f3fe6080604052600436106102025760003560e01c806370a082311161011d578063a9059cbb116100b0578063dd62ed3e1161007f578063f0454f9311610064578063f0454f9314610683578063f2fde38b146106a3578063f44637ba146106c3576102f6565b8063dd62ed3e1461064e578063e409137a1461066e576102f6565b8063a9059cbb146105ce578063aa271e1a146105ee578063d9330abd1461060e578063dd418ae21461062e576102f6565b806395d89b41116100ec57806395d89b4114610559578063983b2d561461056e578063a0712d681461058e578063a457c2d7146105ae576102f6565b806370a08231146104ed578063715018a61461050d5780638da5cb5b14610522578063956cc85914610544576102f6565b806332cb6b0c116101955780634782f779116101645780634782f7791461048e57806349c6bee5146104ae5780634e6630b0146104c35780635ed9ebfc146104d8576102f6565b806332cb6b0c14610419578063395093511461042e57806342966c681461044e5780634334614a1461046e576102f6565b806320e9daf1116101d157806320e9daf11461039757806323b872dd146103b75780633092afd5146103d7578063313ce567146103f7576102f6565b806302846858146102fb57806306fdde031461031d578063095ea7b31461034857806318160ddd14610375576102f6565b366102f657600034116102305760405162461bcd60e51b8152600401610227906124ff565b60405180910390fd5b600061023b346106e3565b905080610246610ea1565b10156102645760405162461bcd60e51b8152600401610227906121aa565b806008600082825461027691906127b4565b909155505060405163a9059cbb60e01b8152309063a9059cbb906102a090339085906004016120d6565b602060405180830381600087803b1580156102ba57600080fd5b505af11580156102ce573d6000803e3d6000fd5b505050506040513d601f19601f820116820180604052508101906102f29190612072565b5050005b600080fd5b34801561030757600080fd5b5061031b610316366004611eda565b610f35565b005b34801561032957600080fd5b50610332610f95565b60405161033f91906120fa565b60405180910390f35b34801561035457600080fd5b50610368610363366004611f61565b611027565b60405161033f91906120ef565b34801561038157600080fd5b5061038a611044565b60405161033f919061274f565b3480156103a357600080fd5b5061038a6103b2366004612092565b61104a565b3480156103c357600080fd5b506103686103d2366004611f26565b61106b565b3480156103e357600080fd5b5061031b6103f2366004611eda565b611104565b34801561040357600080fd5b5061040c611164565b60405161033f9190612758565b34801561042557600080fd5b5061038a611169565b34801561043a57600080fd5b50610368610449366004611f61565b611186565b34801561045a57600080fd5b5061031b610469366004612092565b6111d5565b34801561047a57600080fd5b50610368610489366004611eda565b611207565b34801561049a57600080fd5b5061031b6104a9366004611f61565b611225565b3480156104ba57600080fd5b5061038a6112c8565b3480156104cf57600080fd5b5061038a61136f565b3480156104e457600080fd5b5061038a611373565b3480156104f957600080fd5b5061038a610508366004611eda565b611379565b34801561051957600080fd5b5061031b611394565b34801561052e57600080fd5b5061053761142a565b60405161033f91906120c2565b34801561055057600080fd5b5061038a611439565b34801561056557600080fd5b50610332611452565b34801561057a57600080fd5b5061031b610589366004611eda565b611461565b34801561059a57600080fd5b5061031b6105a9366004612092565b6114c4565b3480156105ba57600080fd5b506103686105c9366004611f61565b6115a7565b3480156105da57600080fd5b506103686105e9366004611f61565b611622565b3480156105fa57600080fd5b50610368610609366004611eda565b611636565b34801561061a57600080fd5b5061031b610629366004611f8a565b611654565b34801561063a57600080fd5b5061038a610649366004612092565b6118ef565b34801561065a57600080fd5b5061038a610669366004611ef4565b6118ff565b34801561067a57600080fd5b5061038a610ea1565b34801561068f57600080fd5b5061031b61069e366004611f61565b61192a565b3480156106af57600080fd5b5061031b6106be366004611eda565b611a08565b3480156106cf57600080fd5b5061031b6106de366004611eda565b611ad5565b6000806106ee6112c8565b9050600080600a60008154811061071557634e487b7160e01b600052603260045260246000fd5b9060005260206000200154600960008154811061074257634e487b7160e01b600052603260045260246000fd5b90600052602060002001546107579190612900565b90506000600a60018154811061077d57634e487b7160e01b600052603260045260246000fd5b906000526020600020015460096001815481106107aa57634e487b7160e01b600052603260045260246000fd5b90600052602060002001546107bf9190612900565b90506000600a6002815481106107e557634e487b7160e01b600052603260045260246000fd5b9060005260206000200154600960028154811061081257634e487b7160e01b600052603260045260246000fd5b90600052602060002001546108279190612900565b905084610b7d5782600a60008154811061085157634e487b7160e01b600052603260045260246000fd5b9060005260206000200154886108679190612900565b60085461087491906127b4565b116108b857600a60008154811061089b57634e487b7160e01b600052603260045260246000fd5b9060005260206000200154876108b19190612900565b9350610b78565b6008546108c5908461291f565b6108cf90856127b4565b93506000600a6000815481106108f557634e487b7160e01b600052603260045260246000fd5b90600052602060002001548561090b91906127cc565b610915908961291f565b9050600960018154811061093957634e487b7160e01b600052603260045260246000fd5b9060005260206000200154811161099357600a60018154811061096c57634e487b7160e01b600052603260045260246000fd5b9060005260206000200154816109829190612900565b61098c90866127b4565b9450610b76565b60096001815481106109b557634e487b7160e01b600052603260045260246000fd5b906000526020600020015481118015610a31575060096002815481106109eb57634e487b7160e01b600052603260045260246000fd5b90600052602060002001546009600181548110610a1857634e487b7160e01b600052603260045260246000fd5b9060005260206000200154610a2d91906127b4565b8111155b15610aaf57600a600281548110610a5857634e487b7160e01b600052603260045260246000fd5b90600052602060002001546009600181548110610a8557634e487b7160e01b600052603260045260246000fd5b906000526020600020015482610a9b919061291f565b610aa59190612900565b61098290846127b4565b600a600381548110610ad157634e487b7160e01b600052603260045260246000fd5b90600052602060002001546009600281548110610afe57634e487b7160e01b600052603260045260246000fd5b90600052602060002001546009600181548110610b2b57634e487b7160e01b600052603260045260246000fd5b906000526020600020015483610b41919061291f565b610b4b919061291f565b610b559190612900565b610b5f83856127b4565b610b6991906127b4565b610b7390866127b4565b94505b505b610e94565b8460011415610d2b578183600a600181548110610baa57634e487b7160e01b600052603260045260246000fd5b906000526020600020015489610bc09190612900565b600854610bcd91906127b4565b610bd7919061291f565b11610bfe57600a60018154811061089b57634e487b7160e01b600052603260045260246000fd5b600854610c0b83856127b4565b610c15919061291f565b93506000600a600181548110610c3b57634e487b7160e01b600052603260045260246000fd5b906000526020600020015485610c5191906127cc565b610c5b908961291f565b90506009600281548110610c7f57634e487b7160e01b600052603260045260246000fd5b90600052602060002001548111610cb257600a60028154811061096c57634e487b7160e01b600052603260045260246000fd5b600a600381548110610cd457634e487b7160e01b600052603260045260246000fd5b90600052602060002001546009600281548110610d0157634e487b7160e01b600052603260045260246000fd5b906000526020600020015482610d17919061291f565b610d219190612900565b610b6990836127b4565b8460021415610e5957808284600a600081548110610d5957634e487b7160e01b600052603260045260246000fd5b90600052602060002001548a610d6f9190612900565b600854610d7c91906127b4565b610d86919061291f565b610d90919061291f565b11610db757600a60028154811061089b57634e487b7160e01b600052603260045260246000fd5b60085481610dc584866127b4565b610dcf91906127b4565b610dd9919061291f565b93506000600a600281548110610dff57634e487b7160e01b600052603260045260246000fd5b906000526020600020015485610e1591906127cc565b610e1f908961291f565b9050600a600381548110610e4357634e487b7160e01b600052603260045260246000fd5b906000526020600020015481610b699190612900565b600a600381548110610e7b57634e487b7160e01b600052603260045260246000fd5b906000526020600020015487610e919190612900565b93505b509193505050505b919050565b6040517f70a0823100000000000000000000000000000000000000000000000000000000815260009030906370a0823190610ee09083906004016120c2565b60206040518083038186803b158015610ef857600080fd5b505afa158015610f0c573d6000803e3d6000fd5b505050506040513d601f19601f82011682018060405250810190610f3091906120aa565b905090565b610f3d611b38565b6001600160a01b0316610f4e61142a565b6001600160a01b031614610f745760405162461bcd60e51b8152600401610227906124ca565b6001600160a01b03166000908152600760205260409020805460ff19169055565b606060048054610fa490612936565b80601f0160208091040260200160405190810160405280929190818152602001828054610fd090612936565b801561101d5780601f10610ff25761010080835404028352916020019161101d565b820191906000526020600020905b81548152906001019060200180831161100057829003601f168201915b5050505050905090565b600061103b611034611b38565b8484611b3c565b50600192915050565b60035490565b6009818154811061105a57600080fd5b600091825260209091200154905081565b6000611078848484611bf0565b6001600160a01b038416600090815260026020526040812081611099611b38565b6001600160a01b03166001600160a01b03168152602001908152602001600020549050828110156110dc5760405162461bcd60e51b81526004016102279061246d565b6110f7856110e8611b38565b6110f2868561291f565b611b3c565b60019150505b9392505050565b61110c611b38565b6001600160a01b031661111d61142a565b6001600160a01b0316146111435760405162461bcd60e51b8152600401610227906124ca565b6001600160a01b03166000908152600660205260409020805460ff19169055565b601290565b6111756012600a612832565b611183906302faf080612900565b81565b600061103b611193611b38565b8484600260006111a1611b38565b6001600160a01b03908116825260208083019390935260409182016000908120918b16815292529020546110f291906127b4565b6111de33611207565b6111fa5760405162461bcd60e51b81526004016102279061242b565b6112043382611d18565b50565b6001600160a01b031660009081526007602052604090205460ff1690565b61122d611b38565b6001600160a01b031661123e61142a565b6001600160a01b0316146112645760405162461bcd60e51b8152600401610227906124ca565b61126c61136f565b811061128a5760405162461bcd60e51b815260040161022790612684565b60405182906001600160a01b0382169083156108fc029084906000818181858888f193505050501580156112c2573d6000803e3d6000fd5b50505050565b60006003815b6009546112dd9060019061291f565b81101561136957600854600a828154811061130857634e487b7160e01b600052603260045260246000fd5b90600052602060002001546009838154811061133457634e487b7160e01b600052603260045260246000fd5b90600052602060002001546113499190612900565b111561135757809150611369565b8061136181612971565b9150506112ce565b50905090565b4790565b60085481565b6001600160a01b031660009081526001602052604090205490565b61139c611b38565b6001600160a01b03166113ad61142a565b6001600160a01b0316146113d35760405162461bcd60e51b8152600401610227906124ca565b600080546040516001600160a01b03909116907f8be0079c531659141344cd1fd0a4f28419497f9722a3daafe3b4186f6b6457e0908390a36000805473ffffffffffffffffffffffffffffffffffffffff19169055565b6000546001600160a01b031690565b6114456012600a612832565b61118390624c4b40612900565b606060058054610fa490612936565b611469611b38565b6001600160a01b031661147a61142a565b6001600160a01b0316146114a05760405162461bcd60e51b8152600401610227906124ca565b6001600160a01b03166000908152600660205260409020805460ff19166001179055565b6114cd33611636565b6114e95760405162461bcd60e51b81526004016102279061231e565b6114f56012600a612832565b611503906302faf080612900565b81306001600160a01b03166318160ddd6040518163ffffffff1660e01b815260040160206040518083038186803b15801561153d57600080fd5b505afa158015611551573d6000803e3d6000fd5b505050506040513d601f19601f8201168201806040525081019061157591906120aa565b61157f91906127b4565b111561159d5760405162461bcd60e51b8152600401610227906125f0565b6112043382611dfe565b600080600260006115b6611b38565b6001600160a01b03908116825260208083019390935260409182016000908120918816815292529020549050828110156116025760405162461bcd60e51b8152600401610227906126bb565b61161861160d611b38565b856110f2868561291f565b5060019392505050565b600061103b61162f611b38565b8484611bf0565b6001600160a01b031660009081526006602052604090205460ff1690565b61165c611b38565b6001600160a01b031661166d61142a565b6001600160a01b0316146116935760405162461bcd60e51b8152600401610227906124ca565b80516004146116b45760405162461bcd60e51b8152600401610227906123bd565b60005b81518110156117d0578181815181106116e057634e487b7160e01b600052603260045260246000fd5b60200260200101515160021480156117475750600082828151811061171557634e487b7160e01b600052603260045260246000fd5b602002602001015160008151811061173d57634e487b7160e01b600052603260045260246000fd5b6020026020010151115b80156117a25750600082828151811061177057634e487b7160e01b600052603260045260246000fd5b602002602001015160018151811061179857634e487b7160e01b600052603260045260246000fd5b6020026020010151115b6117be5760405162461bcd60e51b8152600401610227906123f4565b806117c881612971565b9150506116b7565b5060005b81518110156118eb578181815181106117fd57634e487b7160e01b600052603260045260246000fd5b602002602001015160008151811061182557634e487b7160e01b600052603260045260246000fd5b60200260200101516009828154811061184e57634e487b7160e01b600052603260045260246000fd5b906000526020600020018190555081818151811061187c57634e487b7160e01b600052603260045260246000fd5b60200260200101516001815181106118a457634e487b7160e01b600052603260045260246000fd5b6020026020010151600a82815481106118cd57634e487b7160e01b600052603260045260246000fd5b600091825260209091200155806118e381612971565b9150506117d4565b5050565b600a818154811061105a57600080fd5b6001600160a01b03918216600090815260026020908152604080832093909416825291909152205490565b611932611b38565b6001600160a01b031661194361142a565b6001600160a01b0316146119695760405162461bcd60e51b8152600401610227906124ca565b8080611973610ea1565b10156119915760405162461bcd60e51b8152600401610227906121aa565b60405163a9059cbb60e01b8152309063a9059cbb906119b690869085906004016120d6565b602060405180830381600087803b1580156119d057600080fd5b505af11580156119e4573d6000803e3d6000fd5b505050506040513d601f19601f820116820180604052508101906112c29190612072565b611a10611b38565b6001600160a01b0316611a2161142a565b6001600160a01b031614611a475760405162461bcd60e51b8152600401610227906124ca565b6001600160a01b038116611a6d5760405162461bcd60e51b815260040161022790612264565b600080546040516001600160a01b03808516939216917f8be0079c531659141344cd1fd0a4f28419497f9722a3daafe3b4186f6b6457e091a36000805473ffffffffffffffffffffffffffffffffffffffff19166001600160a01b0392909216919091179055565b611add611b38565b6001600160a01b0316611aee61142a565b6001600160a01b031614611b145760405162461bcd60e51b8152600401610227906124ca565b6001600160a01b03166000908152600760205260409020805460ff19166001179055565b3390565b6001600160a01b038316611b625760405162461bcd60e51b815260040161022790612627565b6001600160a01b038216611b885760405162461bcd60e51b8152600401610227906122c1565b6001600160a01b0380841660008181526002602090815260408083209487168084529490915290819020849055517f8c5be1e5ebec7d5bd14f71427d1e84f3dd0314c0f7b2291e5b200ac8c7c3b92590611be390859061274f565b60405180910390a3505050565b6001600160a01b038316611c165760405162461bcd60e51b815260040161022790612593565b6001600160a01b038216611c3c5760405162461bcd60e51b81526004016102279061214d565b611c47838383611ebe565b6001600160a01b03831660009081526001602052604090205481811015611c805760405162461bcd60e51b815260040161022790612360565b611c8a828261291f565b6001600160a01b038086166000908152600160205260408082209390935590851681529081208054849290611cc09084906127b4565b92505081905550826001600160a01b0316846001600160a01b03167fddf252ad1be2c89b69c2b068fc378daa952ba7f163c4a11628f55a4df523b3ef84604051611d0a919061274f565b60405180910390a350505050565b6001600160a01b038216611d3e5760405162461bcd60e51b815260040161022790612536565b611d4a82600083611ebe565b6001600160a01b03821660009081526001602052604090205481811015611d835760405162461bcd60e51b815260040161022790612207565b611d8d828261291f565b6001600160a01b03841660009081526001602052604081209190915560038054849290611dbb90849061291f565b90915550506040516000906001600160a01b038516907fddf252ad1be2c89b69c2b068fc378daa952ba7f163c4a11628f55a4df523b3ef90611be390869061274f565b6001600160a01b038216611e245760405162461bcd60e51b815260040161022790612718565b611e3060008383611ebe565b8060036000828254611e4291906127b4565b90915550506001600160a01b03821660009081526001602052604081208054839290611e6f9084906127b4565b90915550506040516001600160a01b038316906000907fddf252ad1be2c89b69c2b068fc378daa952ba7f163c4a11628f55a4df523b3ef90611eb290859061274f565b60405180910390a35050565b505050565b80356001600160a01b0381168114610e9c57600080fd5b600060208284031215611eeb578081fd5b6110fd82611ec3565b60008060408385031215611f06578081fd5b611f0f83611ec3565b9150611f1d60208401611ec3565b90509250929050565b600080600060608486031215611f3a578081fd5b611f4384611ec3565b9250611f5160208501611ec3565b9150604084013590509250925092565b60008060408385031215611f73578182fd5b611f7c83611ec3565b946020939093013593505050565b60006020808385031215611f9c578182fd5b823567ffffffffffffffff811115611fb2578283fd5b8301601f81018513611fc2578283fd5b8035611fd5611fd082612790565b612766565b81815283810190838501865b8481101561206457813586018a603f820112611ffb578889fd5b87810135604061200d611fd083612790565b808382528b820191508285018f848e8702880101111561202b578d8efd5b8d95505b8486101561204d578035835260019590950194918c01918c0161202f565b508852505050938701935090860190600101611fe1565b509098975050505050505050565b600060208284031215612083578081fd5b815180151581146110fd578182fd5b6000602082840312156120a3578081fd5b5035919050565b6000602082840312156120bb578081fd5b5051919050565b6001600160a01b0391909116815260200190565b6001600160a01b03929092168252602082015260400190565b901515815260200190565b6000602080835283518082850152825b818110156121265785810183015185820160400152820161210a565b818111156121375783604083870101525b50601f01601f1916929092016040019392505050565b60208082526023908201527f45524332303a207472616e7366657220746f20746865207a65726f206164647260408201527f6573730000000000000000000000000000000000000000000000000000000000606082015260800190565b60208082526021908201527f596f7520686176652073656e7420746f6f206d7563682065746820616d6f756e60408201527f7400000000000000000000000000000000000000000000000000000000000000606082015260800190565b60208082526022908201527f45524332303a206275726e20616d6f756e7420657863656564732062616c616e60408201527f6365000000000000000000000000000000000000000000000000000000000000606082015260800190565b60208082526026908201527f4f776e61626c653a206e6577206f776e657220697320746865207a65726f206160408201527f6464726573730000000000000000000000000000000000000000000000000000606082015260800190565b60208082526022908201527f45524332303a20617070726f766520746f20746865207a65726f20616464726560408201527f7373000000000000000000000000000000000000000000000000000000000000606082015260800190565b60208082526022908201527f596f7520617265206e6f7420726567697374657265642061732061206d696e7460408201526132b960f11b606082015260800190565b60208082526026908201527f45524332303a207472616e7366657220616d6f756e742065786365656473206260408201527f616c616e63650000000000000000000000000000000000000000000000000000606082015260800190565b6020808252600c908201527f496e76616c696420646174610000000000000000000000000000000000000000604082015260600190565b60208082526011908201527f496e76616c69642064617461206974656d000000000000000000000000000000604082015260600190565b60208082526022908201527f596f7520617265206e6f7420726567697374657265642061732061206275726e60408201526132b960f11b606082015260800190565b60208082526028908201527f45524332303a207472616e7366657220616d6f756e742065786365656473206160408201527f6c6c6f77616e6365000000000000000000000000000000000000000000000000606082015260800190565b6020808252818101527f4f776e61626c653a2063616c6c6572206973206e6f7420746865206f776e6572604082015260600190565b60208082526016908201527f596f7520686176652073656e7420302065746865722100000000000000000000604082015260600190565b60208082526021908201527f45524332303a206275726e2066726f6d20746865207a65726f2061646472657360408201527f7300000000000000000000000000000000000000000000000000000000000000606082015260800190565b60208082526025908201527f45524332303a207472616e736665722066726f6d20746865207a65726f20616460408201527f6472657373000000000000000000000000000000000000000000000000000000606082015260800190565b60208082526019908201527f45524332304361707065643a2063617020657863656564656400000000000000604082015260600190565b60208082526024908201527f45524332303a20617070726f76652066726f6d20746865207a65726f2061646460408201527f7265737300000000000000000000000000000000000000000000000000000000606082015260800190565b60208082526016908201527f4e6f7420656e6f756768206574682062616c616e636500000000000000000000604082015260600190565b60208082526025908201527f45524332303a2064656372656173656420616c6c6f77616e63652062656c6f7760408201527f207a65726f000000000000000000000000000000000000000000000000000000606082015260800190565b6020808252601f908201527f45524332303a206d696e7420746f20746865207a65726f206164647265737300604082015260600190565b90815260200190565b60ff91909116815260200190565b60405181810167ffffffffffffffff81118282101715612788576127886129a2565b604052919050565b600067ffffffffffffffff8211156127aa576127aa6129a2565b5060209081020190565b600082198211156127c7576127c761298c565b500190565b6000826127e757634e487b7160e01b81526012600452602481fd5b500490565b80825b60018086116127fe5750612829565b8187048211156128105761281061298c565b8086161561281d57918102915b9490941c9380026127ef565b94509492505050565b60006110fd600019848460008261284b575060016110fd565b81612858575060006110fd565b816001811461286e5760028114612878576128a5565b60019150506110fd565b60ff8411156128895761288961298c565b6001841b91508482111561289f5761289f61298c565b506110fd565b5060208310610133831016604e8410600b84101617156128d8575081810a838111156128d3576128d361298c565b6110fd565b6128e584848460016127ec565b8086048211156128f7576128f761298c565b02949350505050565b600081600019048311821515161561291a5761291a61298c565b500290565b6000828210156129315761293161298c565b500390565b60028104600182168061294a57607f821691505b6020821081141561296b57634e487b7160e01b600052602260045260246000fd5b50919050565b60006000198214156129855761298561298c565b5060010190565b634e487b7160e01b600052601160045260246000fd5b634e487b7160e01b600052604160045260246000fdfea26469706673582212205e259805a9d1596ae4b3921ff93b6c95bd14da8063758b7693038eacb8e4ac7064736f6c63430008000033",
  "immutableReferences": {},
  "source": "// SPDX-License-Identifier: MIT\r\n\r\npragma solidity ^0.8.0;\r\n\r\nimport \"@openzeppelin/contracts/token/ERC20/ERC20.sol\";\r\nimport \"@openzeppelin/contracts/access/Ownable.sol\";\r\n\r\ncontract GeniusTokens is Ownable, ERC20 {\r\n    // modify token name\r\n    string private constant NAME = \"Genius Tokens\";\r\n    // modify token symbol\r\n    string private constant SYMBOL = \"GNUS\";\r\n    // modify token decimal\r\n    uint8 private constant DECIMALS = 18;\r\n\r\n    uint256 public constant INIT_SUPPLY = 5000000 * (10**uint256(DECIMALS)); // 5 million tokens\r\n    uint256 public constant MAX_SUPPLY = 50000000 * (10**uint256(DECIMALS)); // 50 million tokens\r\n\r\n    mapping (address => bool) _minters;\r\n    mapping (address => bool) _burners;\r\n\r\n    uint256 public soldTokens = 0;\r\n    uint256[] public limits = [12500 * 10 ** 18, 12500 * 10 ** 18, 12500 * 10 ** 18, 12500 * 10 ** 18];\r\n    uint256[] public rates = [1000, 800, 640, 512];\r\n\r\n    constructor () ERC20(NAME, SYMBOL) {\r\n         _mint(msg.sender, INIT_SUPPLY);\r\n    }\r\n\r\n    function isMinter(address account) public view returns(bool) {\r\n        return _minters[account];\r\n    }\r\n\r\n    function addMinter(address account) public onlyOwner {\r\n        _minters[account] = true;\r\n    }\r\n\r\n    function removeMinter(address account) public onlyOwner {\r\n        _minters[account] = false;\r\n    }\r\n\r\n    function isBurner(address account) public view returns(bool) {\r\n        return _burners[account];\r\n    }\r\n\r\n    function addBurner(address account) public onlyOwner {\r\n        _burners[account] = true;\r\n    }\r\n\r\n    function removeBurner(address account) public onlyOwner {\r\n        _burners[account] = false;\r\n    }\r\n\r\n    function mint(uint256 amount) public {\r\n        require(isMinter(msg.sender), \"You are not registered as a minter\");\r\n        require(IERC20(address(this)).totalSupply() + amount <= MAX_SUPPLY, \"ERC20Capped: cap exceeded\");\r\n        _mint(msg.sender, amount);\r\n    }\r\n\r\n    function burn(uint256 amount) public {\r\n        require(isBurner(msg.sender), \"You are not registered as a burner\");\r\n        _burn(msg.sender, amount);\r\n    }\r\n\r\n    function gnusBalance() public view returns(uint256) {\r\n        return IERC20(address(this)).balanceOf(address(this));\r\n    }\r\n\r\n    function ethBalance() public view returns(uint256) {\r\n        return address(this).balance;\r\n    }\r\n\r\n    function defineStep() public view returns(uint256) {\r\n        uint256 step = 3;\r\n        for (uint256 i = 0; i < limits.length - 1; i++) {\r\n            if (limits[i] * rates[i] > soldTokens) {\r\n                step = i;\r\n                break;\r\n            }\r\n        }\r\n        return step;\r\n    }\r\n\r\n    function calcTokenAmount(uint256 ethAmount) private view returns(uint256) {\r\n        uint256 step = defineStep();\r\n        uint256 tokenAmount = 0;\r\n        uint256 step0 = limits[0] * rates[0];  // 1000\r\n        uint256 step1 = limits[1] * rates[1];  // 800\r\n        uint256 step2 = limits[2] * rates[2];  // 640\r\n        if (step == 0) {\r\n            // first step\r\n            if ((soldTokens + ethAmount * rates[0]) <= step0) tokenAmount = ethAmount * rates[0];\r\n            else {\r\n                tokenAmount += step0 - soldTokens;\r\n                uint256 remainedETH = ethAmount - uint256(tokenAmount / rates[0]);\r\n                if (remainedETH <= limits[1]) {\r\n                    tokenAmount += remainedETH * rates[1];\r\n                } else if (remainedETH > limits[1] && remainedETH <= limits[1] + limits[2]) {\r\n                    tokenAmount += step1 + (remainedETH - limits[1]) * rates[2];\r\n                } else {\r\n                    tokenAmount += step1 + step2 + (remainedETH - limits[1] - limits[2]) * rates[3];\r\n                }\r\n            }\r\n        } else if (step  == 1) {\r\n            // second step\r\n            if ((soldTokens + ethAmount * rates[1] - step0) <= step1) tokenAmount = ethAmount * rates[1];\r\n            else {\r\n                tokenAmount = step0 + step1 - soldTokens;\r\n                uint256 remainedETH = ethAmount - uint256(tokenAmount / rates[1]);\r\n                if (remainedETH <= limits[2]) {\r\n                    tokenAmount += remainedETH * rates[2];\r\n                } else {\r\n                    tokenAmount += step2 + (remainedETH - limits[2]) * rates[3];\r\n                }\r\n            }\r\n        } else if (step  == 2) {\r\n            // third step\r\n            if ((soldTokens + ethAmount * rates[0] - step0 - step1) <= step2) tokenAmount = ethAmount * rates[2];\r\n            else {\r\n                tokenAmount = step0 + step1 + step2 - soldTokens;\r\n                uint256 remainedETH = ethAmount - uint256(tokenAmount / rates[2]);\r\n                tokenAmount += remainedETH * rates[3];\r\n            }\r\n        } else {\r\n            // the last step\r\n            tokenAmount = ethAmount * rates[3];  // 512\r\n        }\r\n        return tokenAmount;\r\n    }\r\n\r\n    /**\r\n    e.g. [[12500, 1000], [12500, 800], [12500, 640], [12500, 512]]\r\n    limits = [12500, 12500, 12500, 12500]\r\n    rates = [1000, 800, 640, 512]\r\n    */ \r\n    function dynamicConvTable(uint256[][] memory convTable) external onlyOwner {\r\n        require(convTable.length == 4, \"Invalid data\");\r\n        for (uint256 i = 0; i < convTable.length; i++) {\r\n            require(convTable[i].length == 2 && convTable[i][0] > 0 && convTable[i][1] > 0, \"Invalid data item\");\r\n        }\r\n        for (uint256 j = 0; j < convTable.length; j++) {\r\n            limits[j] = convTable[j][0];\r\n            rates[j] = convTable[j][1];\r\n        }\r\n    }\r\n\r\n    // owner can withdraw eth to any address\r\n    function withdrawETH(address _address, uint256 _amount) external onlyOwner {\r\n        require(_amount < ethBalance(), \"Not enough eth balance\");\r\n        address payable to = payable(_address);\r\n        to.transfer(_amount);\r\n    }\r\n\r\n    // Detect receiving eth\r\n    receive () external payable {\r\n        // Check gnus token before receive eth\r\n        require(msg.value > 0, \"You have sent 0 ether!\");\r\n        uint256 tokenAmount = calcTokenAmount(msg.value);\r\n        require(gnusBalance() >= tokenAmount, \"You have sent too much eth amount\");\r\n        soldTokens += tokenAmount;\r\n        IERC20(address(this)).transfer(address(msg.sender), tokenAmount);\r\n    }\r\n\r\n    // Withdraw GNUS tokens\r\n    function withdrawGNUS(address to, uint256 amount) external onlyOwner {\r\n        require(to == address(to),\"Invalid address\");\r\n        uint256 tokenAmount = amount;\r\n        require(gnusBalance() >= tokenAmount, \"You have sent too much eth amount\");\r\n        IERC20(address(this)).transfer(address(to), tokenAmount);\r\n    }\r\n}\r\n",
  "sourcePath": "A:/project_2021/0521-GeniusTokens/work/GeniusToken/contracts/GeniusTokens.sol",
  "compiler": {
    "name": "solc",
    "version": "0.8.0+commit.c7dfd78e.Emscripten.clang"
  },
  "schemaVersion": "3.3.4",
  "updatedAt": "2021-06-01T18:53:11.634Z",
  "devdoc": {
    "kind": "dev",
    "methods": {
      "allowance(address,address)": {
        "details": "See {IERC20-allowance}."
      },
      "approve(address,uint256)": {
        "details": "See {IERC20-approve}. Requirements: - `spender` cannot be the zero address."
      },
      "balanceOf(address)": {
        "details": "See {IERC20-balanceOf}."
      },
      "decimals()": {
        "details": "Returns the number of decimals used to get its user representation. For example, if `decimals` equals `2`, a balance of `505` tokens should be displayed to a user as `5,05` (`505 / 10 ** 2`). Tokens usually opt for a value of 18, imitating the relationship between Ether and Wei. This is the value {ERC20} uses, unless this function is overridden; NOTE: This information is only used for _display_ purposes: it in no way affects any of the arithmetic of the contract, including {IERC20-balanceOf} and {IERC20-transfer}."
      },
      "decreaseAllowance(address,uint256)": {
        "details": "Atomically decreases the allowance granted to `spender` by the caller. This is an alternative to {approve} that can be used as a mitigation for problems described in {IERC20-approve}. Emits an {Approval} event indicating the updated allowance. Requirements: - `spender` cannot be the zero address. - `spender` must have allowance for the caller of at least `subtractedValue`."
      },
      "increaseAllowance(address,uint256)": {
        "details": "Atomically increases the allowance granted to `spender` by the caller. This is an alternative to {approve} that can be used as a mitigation for problems described in {IERC20-approve}. Emits an {Approval} event indicating the updated allowance. Requirements: - `spender` cannot be the zero address."
      },
      "name()": {
        "details": "Returns the name of the token."
      },
      "owner()": {
        "details": "Returns the address of the current owner."
      },
      "renounceOwnership()": {
        "details": "Leaves the contract without owner. It will not be possible to call `onlyOwner` functions anymore. Can only be called by the current owner. NOTE: Renouncing ownership will leave the contract without an owner, thereby removing any functionality that is only available to the owner."
      },
      "symbol()": {
        "details": "Returns the symbol of the token, usually a shorter version of the name."
      },
      "totalSupply()": {
        "details": "See {IERC20-totalSupply}."
      },
      "transfer(address,uint256)": {
        "details": "See {IERC20-transfer}. Requirements: - `recipient` cannot be the zero address. - the caller must have a balance of at least `amount`."
      },
      "transferFrom(address,address,uint256)": {
        "details": "See {IERC20-transferFrom}. Emits an {Approval} event indicating the updated allowance. This is not required by the EIP. See the note at the beginning of {ERC20}. Requirements: - `sender` and `recipient` cannot be the zero address. - `sender` must have a balance of at least `amount`. - the caller must have allowance for ``sender``'s tokens of at least `amount`."
      },
      "transferOwnership(address)": {
        "details": "Transfers ownership of the contract to a new account (`newOwner`). Can only be called by the current owner."
      }
    },
    "version": 1
  },
  "userdoc": {
    "kind": "user",
    "methods": {
      "dynamicConvTable(uint256[][])": {
        "notice": "e.g. [[12500, 1000], [12500, 800], [12500, 640], [12500, 512]] limits = [12500, 12500, 12500, 12500] rates = [1000, 800, 640, 512]"
      }
    },
    "version": 1
  }
}